{
  "_format": "hh-sol-artifact-1",
  "contractName": "FeatureToggle",
  "sourceName": "contracts/FeatureToggle.sol",
  "abi": [
    {
      "inputs": [
        {
          "internalType": "address[]",
          "name": "permissionedUsers",
          "type": "address[]"
        }
      ],
      "stateMutability": "nonpayable",
      "type": "constructor"
    },
    {
      "anonymous": false,
      "inputs": [
        {
          "indexed": true,
          "internalType": "address",
          "name": "previousOwner",
          "type": "address"
        },
        {
          "indexed": true,
          "internalType": "address",
          "name": "newOwner",
          "type": "address"
        }
      ],
      "name": "OwnershipTransferred",
      "type": "event"
    },
    {
      "anonymous": false,
      "inputs": [
        {
          "indexed": true,
          "internalType": "bytes32",
          "name": "role",
          "type": "bytes32"
        },
        {
          "indexed": true,
          "internalType": "bytes32",
          "name": "previousAdminRole",
          "type": "bytes32"
        },
        {
          "indexed": true,
          "internalType": "bytes32",
          "name": "newAdminRole",
          "type": "bytes32"
        }
      ],
      "name": "RoleAdminChanged",
      "type": "event"
    },
    {
      "anonymous": false,
      "inputs": [
        {
          "indexed": true,
          "internalType": "bytes32",
          "name": "role",
          "type": "bytes32"
        },
        {
          "indexed": true,
          "internalType": "address",
          "name": "account",
          "type": "address"
        },
        {
          "indexed": true,
          "internalType": "address",
          "name": "sender",
          "type": "address"
        }
      ],
      "name": "RoleGranted",
      "type": "event"
    },
    {
      "anonymous": false,
      "inputs": [
        {
          "indexed": true,
          "internalType": "bytes32",
          "name": "role",
          "type": "bytes32"
        },
        {
          "indexed": true,
          "internalType": "address",
          "name": "account",
          "type": "address"
        },
        {
          "indexed": true,
          "internalType": "address",
          "name": "sender",
          "type": "address"
        }
      ],
      "name": "RoleRevoked",
      "type": "event"
    },
    {
      "inputs": [],
      "name": "DEFAULT_ADMIN_ROLE",
      "outputs": [
        {
          "internalType": "bytes32",
          "name": "",
          "type": "bytes32"
        }
      ],
      "stateMutability": "view",
      "type": "function"
    },
    {
      "inputs": [],
      "name": "UPDATE_TOGGLE_ROLE",
      "outputs": [
        {
          "internalType": "bytes32",
          "name": "",
          "type": "bytes32"
        }
      ],
      "stateMutability": "view",
      "type": "function"
    },
    {
      "inputs": [
        {
          "internalType": "uint256",
          "name": "toggleId",
          "type": "uint256"
        }
      ],
      "name": "getIsEnabled",
      "outputs": [
        {
          "internalType": "bool",
          "name": "",
          "type": "bool"
        }
      ],
      "stateMutability": "view",
      "type": "function"
    },
    {
      "inputs": [
        {
          "internalType": "bytes32",
          "name": "role",
          "type": "bytes32"
        }
      ],
      "name": "getRoleAdmin",
      "outputs": [
        {
          "internalType": "bytes32",
          "name": "",
          "type": "bytes32"
        }
      ],
      "stateMutability": "view",
      "type": "function"
    },
    {
      "inputs": [
        {
          "internalType": "bytes32",
          "name": "role",
          "type": "bytes32"
        },
        {
          "internalType": "address",
          "name": "account",
          "type": "address"
        }
      ],
      "name": "grantRole",
      "outputs": [],
      "stateMutability": "nonpayable",
      "type": "function"
    },
    {
      "inputs": [
        {
          "internalType": "bytes32",
          "name": "role",
          "type": "bytes32"
        },
        {
          "internalType": "address",
          "name": "account",
          "type": "address"
        }
      ],
      "name": "hasRole",
      "outputs": [
        {
          "internalType": "bool",
          "name": "",
          "type": "bool"
        }
      ],
      "stateMutability": "view",
      "type": "function"
    },
    {
      "inputs": [],
      "name": "owner",
      "outputs": [
        {
          "internalType": "address",
          "name": "",
          "type": "address"
        }
      ],
      "stateMutability": "view",
      "type": "function"
    },
    {
      "inputs": [],
      "name": "renounceOwnership",
      "outputs": [],
      "stateMutability": "nonpayable",
      "type": "function"
    },
    {
      "inputs": [
        {
          "internalType": "bytes32",
          "name": "role",
          "type": "bytes32"
        },
        {
          "internalType": "address",
          "name": "account",
          "type": "address"
        }
      ],
      "name": "renounceRole",
      "outputs": [],
      "stateMutability": "nonpayable",
      "type": "function"
    },
    {
      "inputs": [
        {
          "internalType": "bytes32",
          "name": "role",
          "type": "bytes32"
        },
        {
          "internalType": "address",
          "name": "account",
          "type": "address"
        }
      ],
      "name": "revokeRole",
      "outputs": [],
      "stateMutability": "nonpayable",
      "type": "function"
    },
    {
      "inputs": [
        {
          "internalType": "bytes4",
          "name": "interfaceId",
          "type": "bytes4"
        }
      ],
      "name": "supportsInterface",
      "outputs": [
        {
          "internalType": "bool",
          "name": "",
          "type": "bool"
        }
      ],
      "stateMutability": "view",
      "type": "function"
    },
    {
      "inputs": [
        {
          "internalType": "uint256",
          "name": "",
          "type": "uint256"
        }
      ],
      "name": "toggleIdToToggle",
      "outputs": [
        {
          "internalType": "string",
          "name": "name",
          "type": "string"
        },
        {
          "internalType": "uint256",
          "name": "toggleId",
          "type": "uint256"
        },
        {
          "internalType": "bool",
          "name": "isEnabled",
          "type": "bool"
        }
      ],
      "stateMutability": "view",
      "type": "function"
    },
    {
      "inputs": [
        {
          "internalType": "address",
          "name": "newOwner",
          "type": "address"
        }
      ],
      "name": "transferOwnership",
      "outputs": [],
      "stateMutability": "nonpayable",
      "type": "function"
    },
    {
      "inputs": [
        {
          "internalType": "uint256",
          "name": "toggleId",
          "type": "uint256"
        },
        {
          "internalType": "bool",
          "name": "isEnabled",
          "type": "bool"
        },
        {
          "internalType": "string",
          "name": "name",
          "type": "string"
        }
      ],
      "name": "updateToggle",
      "outputs": [],
      "stateMutability": "nonpayable",
      "type": "function"
    }
  ],
  "bytecode": "0x60806040523480156200001157600080fd5b506040516200200a3803806200200a833981810160405281019062000037919062000405565b620000576200004b6200010160201b60201c565b6200010960201b60201c565b60005b8151811015620000c757620000b37facfd0853df153cbdfe9d1a3853c7f4c50580cdefaba002c708796008c6622ae68383815181106200009f576200009e6200059f565b5b6020026020010151620001cf60201b60201c565b80620000bf9062000522565b90506200005a565b50620000fa7facfd0853df153cbdfe9d1a3853c7f4c50580cdefaba002c708796008c6622ae633620001cf60201b60201c565b506200063c565b600033905090565b6000600160009054906101000a900473ffffffffffffffffffffffffffffffffffffffff16905081600160006101000a81548173ffffffffffffffffffffffffffffffffffffffff021916908373ffffffffffffffffffffffffffffffffffffffff1602179055508173ffffffffffffffffffffffffffffffffffffffff168173ffffffffffffffffffffffffffffffffffffffff167f8be0079c531659141344cd1fd0a4f28419497f9722a3daafe3b4186f6b6457e060405160405180910390a35050565b620001e18282620001e560201b60201c565b5050565b620001f78282620002d660201b60201c565b620002d257600160008084815260200190815260200160002060000160008373ffffffffffffffffffffffffffffffffffffffff1673ffffffffffffffffffffffffffffffffffffffff16815260200190815260200160002060006101000a81548160ff021916908315150217905550620002776200010160201b60201c565b73ffffffffffffffffffffffffffffffffffffffff168173ffffffffffffffffffffffffffffffffffffffff16837f2f8788117e7eff1d82e926ec794901d17c78024a50270940304540a733656f0d60405160405180910390a45b5050565b600080600084815260200190815260200160002060000160008373ffffffffffffffffffffffffffffffffffffffff1673ffffffffffffffffffffffffffffffffffffffff16815260200190815260200160002060009054906101000a900460ff16905092915050565b60006200035762000351846200047f565b62000456565b905080838252602082019050828560208602820111156200037d576200037c62000602565b5b60005b85811015620003b15781620003968882620003bb565b84526020840193506020830192505060018101905062000380565b5050509392505050565b600081519050620003cc8162000622565b92915050565b600082601f830112620003ea57620003e9620005fd565b5b8151620003fc84826020860162000340565b91505092915050565b6000602082840312156200041e576200041d6200060c565b5b600082015167ffffffffffffffff8111156200043f576200043e62000607565b5b6200044d84828501620003d2565b91505092915050565b60006200046262000475565b9050620004708282620004ec565b919050565b6000604051905090565b600067ffffffffffffffff8211156200049d576200049c620005ce565b5b602082029050602081019050919050565b6000620004bb82620004c2565b9050919050565b600073ffffffffffffffffffffffffffffffffffffffff82169050919050565b6000819050919050565b620004f78262000611565b810181811067ffffffffffffffff82111715620005195762000518620005ce565b5b80604052505050565b60006200052f82620004e2565b91507fffffffffffffffffffffffffffffffffffffffffffffffffffffffffffffffff82141562000565576200056462000570565b5b600182019050919050565b7f4e487b7100000000000000000000000000000000000000000000000000000000600052601160045260246000fd5b7f4e487b7100000000000000000000000000000000000000000000000000000000600052603260045260246000fd5b7f4e487b7100000000000000000000000000000000000000000000000000000000600052604160045260246000fd5b600080fd5b600080fd5b600080fd5b600080fd5b6000601f19601f8301169050919050565b6200062d81620004ae565b81146200063957600080fd5b50565b6119be806200064c6000396000f3fe608060405234801561001057600080fd5b50600436106100ea5760003560e01c80638da5cb5b1161008c578063d547741f11610066578063d547741f1461025f578063d624e4de1461027b578063f2fde38b14610299578063f59fd597146102b5576100ea565b80638da5cb5b146101f357806391d1485414610211578063a217fddf14610241576100ea565b8063331670c5116100c8578063331670c51461016b57806336568abe1461019b5780636a4822af146101b7578063715018a6146101e9576100ea565b806301ffc9a7146100ef578063248a9ca31461011f5780632f2ff15d1461014f575b600080fd5b6101096004803603810190610104919061103a565b6102d1565b60405161011691906112f3565b60405180910390f35b61013960048036038101906101349190610fcd565b61034b565b604051610146919061130e565b60405180910390f35b61016960048036038101906101649190610ffa565b61036a565b005b61018560048036038101906101809190611067565b610393565b60405161019291906112f3565b60405180910390f35b6101b560048036038101906101b09190610ffa565b6103c0565b005b6101d160048036038101906101cc9190611067565b610443565b6040516101e09392919061134b565b60405180910390f35b6101f1610502565b005b6101fb61058a565b60405161020891906112d8565b60405180910390f35b61022b60048036038101906102269190610ffa565b6105b4565b60405161023891906112f3565b60405180910390f35b61024961061e565b604051610256919061130e565b60405180910390f35b61027960048036038101906102749190610ffa565b610625565b005b61028361064e565b604051610290919061130e565b60405180910390f35b6102b360048036038101906102ae9190610fa0565b610672565b005b6102cf60048036038101906102ca9190611094565b61076a565b005b60007f7965db0b000000000000000000000000000000000000000000000000000000007bffffffffffffffffffffffffffffffffffffffffffffffffffffffff1916827bffffffffffffffffffffffffffffffffffffffffffffffffffffffff19161480610344575061034382610852565b5b9050919050565b6000806000838152602001908152602001600020600101549050919050565b6103738261034b565b6103848161037f6108bc565b6108c4565b61038e8383610961565b505050565b60006002600083815260200190815260200160002060020160009054906101000a900460ff169050919050565b6103c86108bc565b73ffffffffffffffffffffffffffffffffffffffff168173ffffffffffffffffffffffffffffffffffffffff1614610435576040517f08c379a000000000000000000000000000000000000000000000000000000000815260040161042c90611409565b60405180910390fd5b61043f8282610a41565b5050565b600260205280600052604060002060009150905080600001805461046690611640565b80601f016020809104026020016040519081016040528092919081815260200182805461049290611640565b80156104df5780601f106104b4576101008083540402835291602001916104df565b820191906000526020600020905b8154815290600101906020018083116104c257829003601f168201915b5050505050908060010154908060020160009054906101000a900460ff16905083565b61050a6108bc565b73ffffffffffffffffffffffffffffffffffffffff1661052861058a565b73ffffffffffffffffffffffffffffffffffffffff161461057e576040517f08c379a0000000000000000000000000000000000000000000000000000000008152600401610575906113e9565b60405180910390fd5b6105886000610b22565b565b6000600160009054906101000a900473ffffffffffffffffffffffffffffffffffffffff16905090565b600080600084815260200190815260200160002060000160008373ffffffffffffffffffffffffffffffffffffffff1673ffffffffffffffffffffffffffffffffffffffff16815260200190815260200160002060009054906101000a900460ff16905092915050565b6000801b81565b61062e8261034b565b61063f8161063a6108bc565b6108c4565b6106498383610a41565b505050565b7facfd0853df153cbdfe9d1a3853c7f4c50580cdefaba002c708796008c6622ae681565b61067a6108bc565b73ffffffffffffffffffffffffffffffffffffffff1661069861058a565b73ffffffffffffffffffffffffffffffffffffffff16146106ee576040517f08c379a00000000000000000000000000000000000000000000000000000000081526004016106e5906113e9565b60405180910390fd5b600073ffffffffffffffffffffffffffffffffffffffff168173ffffffffffffffffffffffffffffffffffffffff16141561075e576040517f08c379a0000000000000000000000000000000000000000000000000000000008152600401610755906113a9565b60405180910390fd5b61076781610b22565b50565b6107947facfd0853df153cbdfe9d1a3853c7f4c50580cdefaba002c708796008c6622ae6336105b4565b6107d3576040517f08c379a00000000000000000000000000000000000000000000000000000000081526004016107ca906113c9565b60405180910390fd5b604051806060016040528082815260200184815260200183151581525060026000858152602001908152602001600020600082015181600001908051906020019061081f929190610e24565b506020820151816001015560408201518160020160006101000a81548160ff021916908315150217905550905050505050565b60007f01ffc9a7000000000000000000000000000000000000000000000000000000007bffffffffffffffffffffffffffffffffffffffffffffffffffffffff1916827bffffffffffffffffffffffffffffffffffffffffffffffffffffffff1916149050919050565b600033905090565b6108ce82826105b4565b61095d576108f38173ffffffffffffffffffffffffffffffffffffffff166014610be8565b6109018360001c6020610be8565b60405160200161091292919061129e565b6040516020818303038152906040526040517f08c379a00000000000000000000000000000000000000000000000000000000081526004016109549190611329565b60405180910390fd5b5050565b61096b82826105b4565b610a3d57600160008084815260200190815260200160002060000160008373ffffffffffffffffffffffffffffffffffffffff1673ffffffffffffffffffffffffffffffffffffffff16815260200190815260200160002060006101000a81548160ff0219169083151502179055506109e26108bc565b73ffffffffffffffffffffffffffffffffffffffff168173ffffffffffffffffffffffffffffffffffffffff16837f2f8788117e7eff1d82e926ec794901d17c78024a50270940304540a733656f0d60405160405180910390a45b5050565b610a4b82826105b4565b15610b1e57600080600084815260200190815260200160002060000160008373ffffffffffffffffffffffffffffffffffffffff1673ffffffffffffffffffffffffffffffffffffffff16815260200190815260200160002060006101000a81548160ff021916908315150217905550610ac36108bc565b73ffffffffffffffffffffffffffffffffffffffff168173ffffffffffffffffffffffffffffffffffffffff16837ff6391f5c32d9c69d2a47ea670b442974b53935d1edc7fd64eb21e047a839171b60405160405180910390a45b5050565b6000600160009054906101000a900473ffffffffffffffffffffffffffffffffffffffff16905081600160006101000a81548173ffffffffffffffffffffffffffffffffffffffff021916908373ffffffffffffffffffffffffffffffffffffffff1602179055508173ffffffffffffffffffffffffffffffffffffffff168173ffffffffffffffffffffffffffffffffffffffff167f8be0079c531659141344cd1fd0a4f28419497f9722a3daafe3b4186f6b6457e060405160405180910390a35050565b606060006002836002610bfb91906114fc565b610c0591906114a6565b67ffffffffffffffff811115610c1e57610c1d611730565b5b6040519080825280601f01601f191660200182016040528015610c505781602001600182028036833780820191505090505b5090507f300000000000000000000000000000000000000000000000000000000000000081600081518110610c8857610c87611701565b5b60200101907effffffffffffffffffffffffffffffffffffffffffffffffffffffffffffff1916908160001a9053507f780000000000000000000000000000000000000000000000000000000000000081600181518110610cec57610ceb611701565b5b60200101907effffffffffffffffffffffffffffffffffffffffffffffffffffffffffffff1916908160001a90535060006001846002610d2c91906114fc565b610d3691906114a6565b90505b6001811115610dd6577f3031323334353637383961626364656600000000000000000000000000000000600f861660108110610d7857610d77611701565b5b1a60f81b828281518110610d8f57610d8e611701565b5b60200101907effffffffffffffffffffffffffffffffffffffffffffffffffffffffffffff1916908160001a905350600485901c945080610dcf90611616565b9050610d39565b5060008414610e1a576040517f08c379a0000000000000000000000000000000000000000000000000000000008152600401610e1190611389565b60405180910390fd5b8091505092915050565b828054610e3090611640565b90600052602060002090601f016020900481019282610e525760008555610e99565b82601f10610e6b57805160ff1916838001178555610e99565b82800160010185558215610e99579182015b82811115610e98578251825591602001919060010190610e7d565b5b509050610ea69190610eaa565b5090565b5b80821115610ec3576000816000905550600101610eab565b5090565b6000610eda610ed58461144e565b611429565b905082815260208101848484011115610ef657610ef5611764565b5b610f018482856115d4565b509392505050565b600081359050610f1881611915565b92915050565b600081359050610f2d8161192c565b92915050565b600081359050610f4281611943565b92915050565b600081359050610f578161195a565b92915050565b600082601f830112610f7257610f7161175f565b5b8135610f82848260208601610ec7565b91505092915050565b600081359050610f9a81611971565b92915050565b600060208284031215610fb657610fb561176e565b5b6000610fc484828501610f09565b91505092915050565b600060208284031215610fe357610fe261176e565b5b6000610ff184828501610f33565b91505092915050565b600080604083850312156110115761101061176e565b5b600061101f85828601610f33565b925050602061103085828601610f09565b9150509250929050565b6000602082840312156110505761104f61176e565b5b600061105e84828501610f48565b91505092915050565b60006020828403121561107d5761107c61176e565b5b600061108b84828501610f8b565b91505092915050565b6000806000606084860312156110ad576110ac61176e565b5b60006110bb86828701610f8b565b93505060206110cc86828701610f1e565b925050604084013567ffffffffffffffff8111156110ed576110ec611769565b5b6110f986828701610f5d565b9150509250925092565b61110c81611556565b82525050565b61111b81611568565b82525050565b61112a81611574565b82525050565b600061113b8261147f565b611145818561148a565b93506111558185602086016115e3565b61115e81611773565b840191505092915050565b60006111748261147f565b61117e818561149b565b935061118e8185602086016115e3565b80840191505092915050565b60006111a760208361148a565b91506111b282611784565b602082019050919050565b60006111ca60268361148a565b91506111d5826117ad565b604082019050919050565b60006111ed602b8361148a565b91506111f8826117fc565b604082019050919050565b600061121060208361148a565b915061121b8261184b565b602082019050919050565b600061123360178361149b565b915061123e82611874565b601782019050919050565b600061125660118361149b565b91506112618261189d565b601182019050919050565b6000611279602f8361148a565b9150611284826118c6565b604082019050919050565b611298816115ca565b82525050565b60006112a982611226565b91506112b58285611169565b91506112c082611249565b91506112cc8284611169565b91508190509392505050565b60006020820190506112ed6000830184611103565b92915050565b60006020820190506113086000830184611112565b92915050565b60006020820190506113236000830184611121565b92915050565b600060208201905081810360008301526113438184611130565b905092915050565b600060608201905081810360008301526113658186611130565b9050611374602083018561128f565b6113816040830184611112565b949350505050565b600060208201905081810360008301526113a28161119a565b9050919050565b600060208201905081810360008301526113c2816111bd565b9050919050565b600060208201905081810360008301526113e2816111e0565b9050919050565b6000602082019050818103600083015261140281611203565b9050919050565b600060208201905081810360008301526114228161126c565b9050919050565b6000611433611444565b905061143f8282611672565b919050565b6000604051905090565b600067ffffffffffffffff82111561146957611468611730565b5b61147282611773565b9050602081019050919050565b600081519050919050565b600082825260208201905092915050565b600081905092915050565b60006114b1826115ca565b91506114bc836115ca565b9250827fffffffffffffffffffffffffffffffffffffffffffffffffffffffffffffffff038211156114f1576114f06116a3565b5b828201905092915050565b6000611507826115ca565b9150611512836115ca565b9250817fffffffffffffffffffffffffffffffffffffffffffffffffffffffffffffffff048311821515161561154b5761154a6116a3565b5b828202905092915050565b6000611561826115aa565b9050919050565b60008115159050919050565b6000819050919050565b60007fffffffff0000000000000000000000000000000000000000000000000000000082169050919050565b600073ffffffffffffffffffffffffffffffffffffffff82169050919050565b6000819050919050565b82818337600083830152505050565b60005b838110156116015780820151818401526020810190506115e6565b83811115611610576000848401525b50505050565b6000611621826115ca565b91506000821415611635576116346116a3565b5b600182039050919050565b6000600282049050600182168061165857607f821691505b6020821081141561166c5761166b6116d2565b5b50919050565b61167b82611773565b810181811067ffffffffffffffff8211171561169a57611699611730565b5b80604052505050565b7f4e487b7100000000000000000000000000000000000000000000000000000000600052601160045260246000fd5b7f4e487b7100000000000000000000000000000000000000000000000000000000600052602260045260246000fd5b7f4e487b7100000000000000000000000000000000000000000000000000000000600052603260045260246000fd5b7f4e487b7100000000000000000000000000000000000000000000000000000000600052604160045260246000fd5b600080fd5b600080fd5b600080fd5b600080fd5b6000601f19601f8301169050919050565b7f537472696e67733a20686578206c656e67746820696e73756666696369656e74600082015250565b7f4f776e61626c653a206e6577206f776e657220697320746865207a65726f206160008201527f6464726573730000000000000000000000000000000000000000000000000000602082015250565b7f43616c6c6572206973206e6f74207065726d697373696f6e656420746f20757060008201527f6461746520746f67676c65000000000000000000000000000000000000000000602082015250565b7f4f776e61626c653a2063616c6c6572206973206e6f7420746865206f776e6572600082015250565b7f416363657373436f6e74726f6c3a206163636f756e7420000000000000000000600082015250565b7f206973206d697373696e6720726f6c6520000000000000000000000000000000600082015250565b7f416363657373436f6e74726f6c3a2063616e206f6e6c792072656e6f756e636560008201527f20726f6c657320666f722073656c660000000000000000000000000000000000602082015250565b61191e81611556565b811461192957600080fd5b50565b61193581611568565b811461194057600080fd5b50565b61194c81611574565b811461195757600080fd5b50565b6119638161157e565b811461196e57600080fd5b50565b61197a816115ca565b811461198557600080fd5b5056fea2646970667358221220dd8a2e99241392b343ece9699747af0e10df1c00ca38c7f6b52a89b28d1eb41664736f6c63430008070033",
  "linkReferences": {},
  "deployedLinkReferences": {}
}