{
  "_format": "hh-sol-artifact-1",
  "contractName": "FeatureToggle",
  "sourceName": "contracts/FeatureToggle.sol",
  "abi": [
    {
      "inputs": [
        {
          "internalType": "address[]",
          "name": "permissionedUsers",
          "type": "address[]"
        }
      ],
      "stateMutability": "nonpayable",
      "type": "constructor"
    },
    {
      "anonymous": false,
      "inputs": [
        {
          "indexed": true,
          "internalType": "address",
          "name": "previousOwner",
          "type": "address"
        },
        {
          "indexed": true,
          "internalType": "address",
          "name": "newOwner",
          "type": "address"
        }
      ],
      "name": "OwnershipTransferred",
      "type": "event"
    },
    {
      "anonymous": false,
      "inputs": [
        {
          "indexed": true,
          "internalType": "bytes32",
          "name": "role",
          "type": "bytes32"
        },
        {
          "indexed": true,
          "internalType": "bytes32",
          "name": "previousAdminRole",
          "type": "bytes32"
        },
        {
          "indexed": true,
          "internalType": "bytes32",
          "name": "newAdminRole",
          "type": "bytes32"
        }
      ],
      "name": "RoleAdminChanged",
      "type": "event"
    },
    {
      "anonymous": false,
      "inputs": [
        {
          "indexed": true,
          "internalType": "bytes32",
          "name": "role",
          "type": "bytes32"
        },
        {
          "indexed": true,
          "internalType": "address",
          "name": "account",
          "type": "address"
        },
        {
          "indexed": true,
          "internalType": "address",
          "name": "sender",
          "type": "address"
        }
      ],
      "name": "RoleGranted",
      "type": "event"
    },
    {
      "anonymous": false,
      "inputs": [
        {
          "indexed": true,
          "internalType": "bytes32",
          "name": "role",
          "type": "bytes32"
        },
        {
          "indexed": true,
          "internalType": "address",
          "name": "account",
          "type": "address"
        },
        {
          "indexed": true,
          "internalType": "address",
          "name": "sender",
          "type": "address"
        }
      ],
      "name": "RoleRevoked",
      "type": "event"
    },
    {
      "inputs": [],
      "name": "DEFAULT_ADMIN_ROLE",
      "outputs": [
        {
          "internalType": "bytes32",
          "name": "",
          "type": "bytes32"
        }
      ],
      "stateMutability": "view",
      "type": "function"
    },
    {
      "inputs": [],
      "name": "UPDATE_TOGGLE_ROLE",
      "outputs": [
        {
          "internalType": "bytes32",
          "name": "",
          "type": "bytes32"
        }
      ],
      "stateMutability": "view",
      "type": "function"
    },
    {
      "inputs": [
        {
          "internalType": "uint256",
          "name": "toggleId",
          "type": "uint256"
        }
      ],
      "name": "getIsEnabled",
      "outputs": [
        {
          "internalType": "bool",
          "name": "",
          "type": "bool"
        }
      ],
      "stateMutability": "view",
      "type": "function"
    },
    {
      "inputs": [
        {
          "internalType": "bytes32",
          "name": "role",
          "type": "bytes32"
        }
      ],
      "name": "getRoleAdmin",
      "outputs": [
        {
          "internalType": "bytes32",
          "name": "",
          "type": "bytes32"
        }
      ],
      "stateMutability": "view",
      "type": "function"
    },
    {
      "inputs": [
        {
          "internalType": "bytes32",
          "name": "role",
          "type": "bytes32"
        },
        {
          "internalType": "address",
          "name": "account",
          "type": "address"
        }
      ],
      "name": "grantRole",
      "outputs": [],
      "stateMutability": "nonpayable",
      "type": "function"
    },
    {
      "inputs": [
        {
          "internalType": "bytes32",
          "name": "role",
          "type": "bytes32"
        },
        {
          "internalType": "address",
          "name": "account",
          "type": "address"
        }
      ],
      "name": "hasRole",
      "outputs": [
        {
          "internalType": "bool",
          "name": "",
          "type": "bool"
        }
      ],
      "stateMutability": "view",
      "type": "function"
    },
    {
      "inputs": [],
      "name": "owner",
      "outputs": [
        {
          "internalType": "address",
          "name": "",
          "type": "address"
        }
      ],
      "stateMutability": "view",
      "type": "function"
    },
    {
      "inputs": [],
      "name": "renounceOwnership",
      "outputs": [],
      "stateMutability": "nonpayable",
      "type": "function"
    },
    {
      "inputs": [
        {
          "internalType": "bytes32",
          "name": "role",
          "type": "bytes32"
        },
        {
          "internalType": "address",
          "name": "account",
          "type": "address"
        }
      ],
      "name": "renounceRole",
      "outputs": [],
      "stateMutability": "nonpayable",
      "type": "function"
    },
    {
      "inputs": [
        {
          "internalType": "bytes32",
          "name": "role",
          "type": "bytes32"
        },
        {
          "internalType": "address",
          "name": "account",
          "type": "address"
        }
      ],
      "name": "revokeRole",
      "outputs": [],
      "stateMutability": "nonpayable",
      "type": "function"
    },
    {
      "inputs": [
        {
          "internalType": "bytes4",
          "name": "interfaceId",
          "type": "bytes4"
        }
      ],
      "name": "supportsInterface",
      "outputs": [
        {
          "internalType": "bool",
          "name": "",
          "type": "bool"
        }
      ],
      "stateMutability": "view",
      "type": "function"
    },
    {
      "inputs": [
        {
          "internalType": "uint256",
          "name": "",
          "type": "uint256"
        }
      ],
      "name": "toggleIdToToggle",
      "outputs": [
        {
          "internalType": "string",
          "name": "name",
          "type": "string"
        },
        {
          "internalType": "uint256",
          "name": "toggleId",
          "type": "uint256"
        },
        {
          "internalType": "bool",
          "name": "isEnabled",
          "type": "bool"
        }
      ],
      "stateMutability": "view",
      "type": "function"
    },
    {
      "inputs": [
        {
          "internalType": "address",
          "name": "newOwner",
          "type": "address"
        }
      ],
      "name": "transferOwnership",
      "outputs": [],
      "stateMutability": "nonpayable",
      "type": "function"
    },
    {
      "inputs": [
        {
          "internalType": "uint256",
          "name": "toggleId",
          "type": "uint256"
        },
        {
          "internalType": "bool",
          "name": "isEnabled",
          "type": "bool"
        },
        {
          "internalType": "string",
          "name": "name",
          "type": "string"
        }
      ],
      "name": "updateToggle",
      "outputs": [],
      "stateMutability": "nonpayable",
      "type": "function"
    }
  ],
  "bytecode": "0x60806040523480156200001157600080fd5b5060405162002054380380620020548339818101604052810190620000379190620003d3565b620000576200004b620000cf60201b60201c565b620000d760201b60201c565b60005b8151811015620000c757620000b37facfd0853df153cbdfe9d1a3853c7f4c50580cdefaba002c708796008c6622ae68383815181106200009f576200009e6200056d565b5b60200260200101516200019d60201b60201c565b80620000bf90620004f0565b90506200005a565b50506200060a565b600033905090565b6000600160009054906101000a900473ffffffffffffffffffffffffffffffffffffffff16905081600160006101000a81548173ffffffffffffffffffffffffffffffffffffffff021916908373ffffffffffffffffffffffffffffffffffffffff1602179055508173ffffffffffffffffffffffffffffffffffffffff168173ffffffffffffffffffffffffffffffffffffffff167f8be0079c531659141344cd1fd0a4f28419497f9722a3daafe3b4186f6b6457e060405160405180910390a35050565b620001af8282620001b360201b60201c565b5050565b620001c58282620002a460201b60201c565b620002a057600160008084815260200190815260200160002060000160008373ffffffffffffffffffffffffffffffffffffffff1673ffffffffffffffffffffffffffffffffffffffff16815260200190815260200160002060006101000a81548160ff02191690831515021790555062000245620000cf60201b60201c565b73ffffffffffffffffffffffffffffffffffffffff168173ffffffffffffffffffffffffffffffffffffffff16837f2f8788117e7eff1d82e926ec794901d17c78024a50270940304540a733656f0d60405160405180910390a45b5050565b600080600084815260200190815260200160002060000160008373ffffffffffffffffffffffffffffffffffffffff1673ffffffffffffffffffffffffffffffffffffffff16815260200190815260200160002060009054906101000a900460ff16905092915050565b6000620003256200031f846200044d565b62000424565b905080838252602082019050828560208602820111156200034b576200034a620005d0565b5b60005b858110156200037f578162000364888262000389565b8452602084019350602083019250506001810190506200034e565b5050509392505050565b6000815190506200039a81620005f0565b92915050565b600082601f830112620003b857620003b7620005cb565b5b8151620003ca8482602086016200030e565b91505092915050565b600060208284031215620003ec57620003eb620005da565b5b600082015167ffffffffffffffff8111156200040d576200040c620005d5565b5b6200041b84828501620003a0565b91505092915050565b60006200043062000443565b90506200043e8282620004ba565b919050565b6000604051905090565b600067ffffffffffffffff8211156200046b576200046a6200059c565b5b602082029050602081019050919050565b6000620004898262000490565b9050919050565b600073ffffffffffffffffffffffffffffffffffffffff82169050919050565b6000819050919050565b620004c582620005df565b810181811067ffffffffffffffff82111715620004e757620004e66200059c565b5b80604052505050565b6000620004fd82620004b0565b91507fffffffffffffffffffffffffffffffffffffffffffffffffffffffffffffffff8214156200053357620005326200053e565b5b600182019050919050565b7f4e487b7100000000000000000000000000000000000000000000000000000000600052601160045260246000fd5b7f4e487b7100000000000000000000000000000000000000000000000000000000600052603260045260246000fd5b7f4e487b7100000000000000000000000000000000000000000000000000000000600052604160045260246000fd5b600080fd5b600080fd5b600080fd5b600080fd5b6000601f19601f8301169050919050565b620005fb816200047c565b81146200060757600080fd5b50565b611a3a806200061a6000396000f3fe608060405234801561001057600080fd5b50600436106100ea5760003560e01c80638da5cb5b1161008c578063d547741f11610066578063d547741f1461025f578063d624e4de1461027b578063f2fde38b14610299578063f59fd597146102b5576100ea565b80638da5cb5b146101f357806391d1485414610211578063a217fddf14610241576100ea565b8063331670c5116100c8578063331670c51461016b57806336568abe1461019b5780636a4822af146101b7578063715018a6146101e9576100ea565b806301ffc9a7146100ef578063248a9ca31461011f5780632f2ff15d1461014f575b600080fd5b610109600480360381019061010491906110b6565b6102d1565b604051610116919061136f565b60405180910390f35b61013960048036038101906101349190611049565b61034b565b604051610146919061138a565b60405180910390f35b61016960048036038101906101649190611076565b61036a565b005b610185600480360381019061018091906110e3565b610393565b604051610192919061136f565b60405180910390f35b6101b560048036038101906101b09190611076565b61043c565b005b6101d160048036038101906101cc91906110e3565b6104bf565b6040516101e0939291906113c7565b60405180910390f35b6101f161057e565b005b6101fb610606565b6040516102089190611354565b60405180910390f35b61022b60048036038101906102269190611076565b610630565b604051610238919061136f565b60405180910390f35b61024961069a565b604051610256919061138a565b60405180910390f35b61027960048036038101906102749190611076565b6106a1565b005b6102836106ca565b604051610290919061138a565b60405180910390f35b6102b360048036038101906102ae919061101c565b6106ee565b005b6102cf60048036038101906102ca9190611110565b6107e6565b005b60007f7965db0b000000000000000000000000000000000000000000000000000000007bffffffffffffffffffffffffffffffffffffffffffffffffffffffff1916827bffffffffffffffffffffffffffffffffffffffffffffffffffffffff191614806103445750610343826108ce565b5b9050919050565b6000806000838152602001908152602001600020600101549050919050565b6103738261034b565b6103848161037f610938565b610940565b61038e83836109dd565b505050565b600061039d610938565b73ffffffffffffffffffffffffffffffffffffffff166103bb610606565b73ffffffffffffffffffffffffffffffffffffffff1614610411576040517f08c379a000000000000000000000000000000000000000000000000000000000815260040161040890611465565b60405180910390fd5b6002600083815260200190815260200160002060020160009054906101000a900460ff169050919050565b610444610938565b73ffffffffffffffffffffffffffffffffffffffff168173ffffffffffffffffffffffffffffffffffffffff16146104b1576040517f08c379a00000000000000000000000000000000000000000000000000000000081526004016104a890611485565b60405180910390fd5b6104bb8282610abd565b5050565b60026020528060005260406000206000915090508060000180546104e2906116bc565b80601f016020809104026020016040519081016040528092919081815260200182805461050e906116bc565b801561055b5780601f106105305761010080835404028352916020019161055b565b820191906000526020600020905b81548152906001019060200180831161053e57829003601f168201915b5050505050908060010154908060020160009054906101000a900460ff16905083565b610586610938565b73ffffffffffffffffffffffffffffffffffffffff166105a4610606565b73ffffffffffffffffffffffffffffffffffffffff16146105fa576040517f08c379a00000000000000000000000000000000000000000000000000000000081526004016105f190611465565b60405180910390fd5b6106046000610b9e565b565b6000600160009054906101000a900473ffffffffffffffffffffffffffffffffffffffff16905090565b600080600084815260200190815260200160002060000160008373ffffffffffffffffffffffffffffffffffffffff1673ffffffffffffffffffffffffffffffffffffffff16815260200190815260200160002060009054906101000a900460ff16905092915050565b6000801b81565b6106aa8261034b565b6106bb816106b6610938565b610940565b6106c58383610abd565b505050565b7facfd0853df153cbdfe9d1a3853c7f4c50580cdefaba002c708796008c6622ae681565b6106f6610938565b73ffffffffffffffffffffffffffffffffffffffff16610714610606565b73ffffffffffffffffffffffffffffffffffffffff161461076a576040517f08c379a000000000000000000000000000000000000000000000000000000000815260040161076190611465565b60405180910390fd5b600073ffffffffffffffffffffffffffffffffffffffff168173ffffffffffffffffffffffffffffffffffffffff1614156107da576040517f08c379a00000000000000000000000000000000000000000000000000000000081526004016107d190611425565b60405180910390fd5b6107e381610b9e565b50565b6108107facfd0853df153cbdfe9d1a3853c7f4c50580cdefaba002c708796008c6622ae633610630565b61084f576040517f08c379a000000000000000000000000000000000000000000000000000000000815260040161084690611445565b60405180910390fd5b604051806060016040528082815260200184815260200183151581525060026000858152602001908152602001600020600082015181600001908051906020019061089b929190610ea0565b506020820151816001015560408201518160020160006101000a81548160ff021916908315150217905550905050505050565b60007f01ffc9a7000000000000000000000000000000000000000000000000000000007bffffffffffffffffffffffffffffffffffffffffffffffffffffffff1916827bffffffffffffffffffffffffffffffffffffffffffffffffffffffff1916149050919050565b600033905090565b61094a8282610630565b6109d95761096f8173ffffffffffffffffffffffffffffffffffffffff166014610c64565b61097d8360001c6020610c64565b60405160200161098e92919061131a565b6040516020818303038152906040526040517f08c379a00000000000000000000000000000000000000000000000000000000081526004016109d091906113a5565b60405180910390fd5b5050565b6109e78282610630565b610ab957600160008084815260200190815260200160002060000160008373ffffffffffffffffffffffffffffffffffffffff1673ffffffffffffffffffffffffffffffffffffffff16815260200190815260200160002060006101000a81548160ff021916908315150217905550610a5e610938565b73ffffffffffffffffffffffffffffffffffffffff168173ffffffffffffffffffffffffffffffffffffffff16837f2f8788117e7eff1d82e926ec794901d17c78024a50270940304540a733656f0d60405160405180910390a45b5050565b610ac78282610630565b15610b9a57600080600084815260200190815260200160002060000160008373ffffffffffffffffffffffffffffffffffffffff1673ffffffffffffffffffffffffffffffffffffffff16815260200190815260200160002060006101000a81548160ff021916908315150217905550610b3f610938565b73ffffffffffffffffffffffffffffffffffffffff168173ffffffffffffffffffffffffffffffffffffffff16837ff6391f5c32d9c69d2a47ea670b442974b53935d1edc7fd64eb21e047a839171b60405160405180910390a45b5050565b6000600160009054906101000a900473ffffffffffffffffffffffffffffffffffffffff16905081600160006101000a81548173ffffffffffffffffffffffffffffffffffffffff021916908373ffffffffffffffffffffffffffffffffffffffff1602179055508173ffffffffffffffffffffffffffffffffffffffff168173ffffffffffffffffffffffffffffffffffffffff167f8be0079c531659141344cd1fd0a4f28419497f9722a3daafe3b4186f6b6457e060405160405180910390a35050565b606060006002836002610c779190611578565b610c819190611522565b67ffffffffffffffff811115610c9a57610c996117ac565b5b6040519080825280601f01601f191660200182016040528015610ccc5781602001600182028036833780820191505090505b5090507f300000000000000000000000000000000000000000000000000000000000000081600081518110610d0457610d0361177d565b5b60200101907effffffffffffffffffffffffffffffffffffffffffffffffffffffffffffff1916908160001a9053507f780000000000000000000000000000000000000000000000000000000000000081600181518110610d6857610d6761177d565b5b60200101907effffffffffffffffffffffffffffffffffffffffffffffffffffffffffffff1916908160001a90535060006001846002610da89190611578565b610db29190611522565b90505b6001811115610e52577f3031323334353637383961626364656600000000000000000000000000000000600f861660108110610df457610df361177d565b5b1a60f81b828281518110610e0b57610e0a61177d565b5b60200101907effffffffffffffffffffffffffffffffffffffffffffffffffffffffffffff1916908160001a905350600485901c945080610e4b90611692565b9050610db5565b5060008414610e96576040517f08c379a0000000000000000000000000000000000000000000000000000000008152600401610e8d90611405565b60405180910390fd5b8091505092915050565b828054610eac906116bc565b90600052602060002090601f016020900481019282610ece5760008555610f15565b82601f10610ee757805160ff1916838001178555610f15565b82800160010185558215610f15579182015b82811115610f14578251825591602001919060010190610ef9565b5b509050610f229190610f26565b5090565b5b80821115610f3f576000816000905550600101610f27565b5090565b6000610f56610f51846114ca565b6114a5565b905082815260208101848484011115610f7257610f716117e0565b5b610f7d848285611650565b509392505050565b600081359050610f9481611991565b92915050565b600081359050610fa9816119a8565b92915050565b600081359050610fbe816119bf565b92915050565b600081359050610fd3816119d6565b92915050565b600082601f830112610fee57610fed6117db565b5b8135610ffe848260208601610f43565b91505092915050565b600081359050611016816119ed565b92915050565b600060208284031215611032576110316117ea565b5b600061104084828501610f85565b91505092915050565b60006020828403121561105f5761105e6117ea565b5b600061106d84828501610faf565b91505092915050565b6000806040838503121561108d5761108c6117ea565b5b600061109b85828601610faf565b92505060206110ac85828601610f85565b9150509250929050565b6000602082840312156110cc576110cb6117ea565b5b60006110da84828501610fc4565b91505092915050565b6000602082840312156110f9576110f86117ea565b5b600061110784828501611007565b91505092915050565b600080600060608486031215611129576111286117ea565b5b600061113786828701611007565b935050602061114886828701610f9a565b925050604084013567ffffffffffffffff811115611169576111686117e5565b5b61117586828701610fd9565b9150509250925092565b611188816115d2565b82525050565b611197816115e4565b82525050565b6111a6816115f0565b82525050565b60006111b7826114fb565b6111c18185611506565b93506111d181856020860161165f565b6111da816117ef565b840191505092915050565b60006111f0826114fb565b6111fa8185611517565b935061120a81856020860161165f565b80840191505092915050565b6000611223602083611506565b915061122e82611800565b602082019050919050565b6000611246602683611506565b915061125182611829565b604082019050919050565b6000611269602b83611506565b915061127482611878565b604082019050919050565b600061128c602083611506565b9150611297826118c7565b602082019050919050565b60006112af601783611517565b91506112ba826118f0565b601782019050919050565b60006112d2601183611517565b91506112dd82611919565b601182019050919050565b60006112f5602f83611506565b915061130082611942565b604082019050919050565b61131481611646565b82525050565b6000611325826112a2565b915061133182856111e5565b915061133c826112c5565b915061134882846111e5565b91508190509392505050565b6000602082019050611369600083018461117f565b92915050565b6000602082019050611384600083018461118e565b92915050565b600060208201905061139f600083018461119d565b92915050565b600060208201905081810360008301526113bf81846111ac565b905092915050565b600060608201905081810360008301526113e181866111ac565b90506113f0602083018561130b565b6113fd604083018461118e565b949350505050565b6000602082019050818103600083015261141e81611216565b9050919050565b6000602082019050818103600083015261143e81611239565b9050919050565b6000602082019050818103600083015261145e8161125c565b9050919050565b6000602082019050818103600083015261147e8161127f565b9050919050565b6000602082019050818103600083015261149e816112e8565b9050919050565b60006114af6114c0565b90506114bb82826116ee565b919050565b6000604051905090565b600067ffffffffffffffff8211156114e5576114e46117ac565b5b6114ee826117ef565b9050602081019050919050565b600081519050919050565b600082825260208201905092915050565b600081905092915050565b600061152d82611646565b915061153883611646565b9250827fffffffffffffffffffffffffffffffffffffffffffffffffffffffffffffffff0382111561156d5761156c61171f565b5b828201905092915050565b600061158382611646565b915061158e83611646565b9250817fffffffffffffffffffffffffffffffffffffffffffffffffffffffffffffffff04831182151516156115c7576115c661171f565b5b828202905092915050565b60006115dd82611626565b9050919050565b60008115159050919050565b6000819050919050565b60007fffffffff0000000000000000000000000000000000000000000000000000000082169050919050565b600073ffffffffffffffffffffffffffffffffffffffff82169050919050565b6000819050919050565b82818337600083830152505050565b60005b8381101561167d578082015181840152602081019050611662565b8381111561168c576000848401525b50505050565b600061169d82611646565b915060008214156116b1576116b061171f565b5b600182039050919050565b600060028204905060018216806116d457607f821691505b602082108114156116e8576116e761174e565b5b50919050565b6116f7826117ef565b810181811067ffffffffffffffff82111715611716576117156117ac565b5b80604052505050565b7f4e487b7100000000000000000000000000000000000000000000000000000000600052601160045260246000fd5b7f4e487b7100000000000000000000000000000000000000000000000000000000600052602260045260246000fd5b7f4e487b7100000000000000000000000000000000000000000000000000000000600052603260045260246000fd5b7f4e487b7100000000000000000000000000000000000000000000000000000000600052604160045260246000fd5b600080fd5b600080fd5b600080fd5b600080fd5b6000601f19601f8301169050919050565b7f537472696e67733a20686578206c656e67746820696e73756666696369656e74600082015250565b7f4f776e61626c653a206e6577206f776e657220697320746865207a65726f206160008201527f6464726573730000000000000000000000000000000000000000000000000000602082015250565b7f43616c6c6572206973206e6f74207065726d697373696f6e656420746f20757060008201527f6461746520746f67676c65000000000000000000000000000000000000000000602082015250565b7f4f776e61626c653a2063616c6c6572206973206e6f7420746865206f776e6572600082015250565b7f416363657373436f6e74726f6c3a206163636f756e7420000000000000000000600082015250565b7f206973206d697373696e6720726f6c6520000000000000000000000000000000600082015250565b7f416363657373436f6e74726f6c3a2063616e206f6e6c792072656e6f756e636560008201527f20726f6c657320666f722073656c660000000000000000000000000000000000602082015250565b61199a816115d2565b81146119a557600080fd5b50565b6119b1816115e4565b81146119bc57600080fd5b50565b6119c8816115f0565b81146119d357600080fd5b50565b6119df816115fa565b81146119ea57600080fd5b50565b6119f681611646565b8114611a0157600080fd5b5056fea26469706673582212207e508e2fd25c91c16ed4694f7fe4fe8bd8b39f6d1b48463c556f479e8fa0da7764736f6c63430008070033",
  "linkReferences": {},
  "deployedLinkReferences": {}
}